:100000000C942A000C9447000C9447000C94470071
:100010000C9447000C9447000C9447000C94470044
:100020000C9447000C9447000C9447000C94470034
:100030000C9447000C9447000C9447000C94470024
:100040000C9447000C9447000C9447000C94470014
:100050000C94470011241FBECFE5D8E0DEBFCDBF12
:1000600010E0A0E6B0E0EAE1F6E002C005900D92F3
:10007000A43AB107D9F710E0A4EAB0E001C01D929C
:10008000A63AB107E1F70E94FE010C940B030C9411
:100090000000CF93DF93EB01873010F080E00EC0BB
:1000A000E82FF0E0EE0FFF1FEC58FF4F0190F081BA
:1000B000E02D09958091A500888381E0DF91CF91A3
:1000C0000895873010F080E00895E82FF0E0EE0FFB
:1000D000FF1FE058FF4F0190F081E02D099581E06E
:1000E0000895873050F4E82FF0E0EE0FFF1FEC5832
:1000F000FF4F0190F081E02D099580E008950E9466
:10010000E3010E940B01089581E060E00E94550226
:1001100082E060E00E94550283E060E00E945502A8
:1001200084E060E00E94550285E060E00E94550294
:1001300087E060E00E94550288E060E00E9455027E
:1001400008950F931F93182F062F8730D0F46A302D
:10015000C0F40E948400E12FF0E0EE0FFF1FEC5886
:10016000FF4F0190F081E02D0995E02FF0E0EE0FB8
:10017000FF1FE05AFF4F0190F081E02D099581E0CB
:1001800001C080E01F910F9108958CE061E00E9412
:100190005502089580E061E00E94550208958AE0CA
:1001A00061E00E945502089589E061E00E945502D5
:1001B000089588E061E00E945502089580E061E0C2
:1001C0000E945502089586E08093A4008CE060E0D0
:1001D0000E945502089585E08093A40080E060E0CD
:1001E0000E945502089584E08093A4008AE060E0B4
:1001F0000E945502089583E08093A40089E060E0A6
:100200000E945502089582E08093A40088E060E097
:100210000E945502089581E08093A40080E060E090
:100220000E945502089589E08093A50081E061E075
:100230000E94550282E061E00E94550287E061E081
:100240000E94550288E061E00E94550284E061E06E
:100250000E94550283E061E00E945502089588E003
:100260008093A50082E061E00E94550281E061E098
:100270000E94550288E061E00E94550287E061E03B
:100280000E94550285E061E00E94550284E061E031
:100290000E94550283E061E00E945502089587E0C4
:1002A0008093A50081E061E00E94550282E061E058
:1002B0000E94550283E061E00E945502089586E0A5
:1002C0008093A50081E061E00E94550285E061E035
:1002D0000E94550288E061E00E94550283E061E0DF
:1002E0000E94550284E061E00E94550287E061E0CF
:1002F0000E945502089585E08093A50081E061E0A9
:100300000E94550287E061E00E94550288E061E0AA
:100310000E94550283E061E00E94550284E061E0A2
:100320000E945502089584E08093A50088E061E072
:100330000E94550282E061E00E94550287E061E080
:100340000E94550283E061E00E945502089583E017
:100350008093A50081E061E00E94550282E061E0A7
:100360000E94550288E061E00E94550283E061E04E
:100370000E94550284E061E00E945502089582E0E7
:100380008093A50081E061E00E94550282E061E077
:100390000E94550288E061E00E94550285E061E01C
:1003A0000E94550284E061E00E945502089581E0B8
:1003B0008093A50082E061E00E94550283E061E045
:1003C0000E94550208951092A50081E061E00E940C
:1003D000550282E061E00E94550287E061E00E94E0
:1003E000550285E061E00E94550284E061E00E94D0
:1003F000550283E061E00E9455020895CF93DF9398
:100400000E9420020E947F00C0E0D0E081E06C2FBB
:100410000E94A10020E030E00BC0000001964FE0F8
:10042000803A9407D1F72F5F3F4F2D37310519F0F0
:1004300080E090E0F2CF2196CA30D1052CF7E6CFCC
:100440001ABA8FEF87BB14BA11BA8BB38BBB88B3C0
:1004500018BA85B385BB82B382BB0895DB018032B5
:1004600010F080E00895482F477086958695869510
:10047000E82FF0E0EE0FFF1FE456FF4F0190F081F0
:10048000E02D808190E021E030E0042E02C0220FB8
:10049000331F0A94E2F78223932302C09595879530
:1004A0004A95E2F78C9381E00895803210F080E065
:1004B0000895282F2770869586958695E82FF0E079
:1004C0006623A1F4EE0FFF1FE457FF4F0190F08168
:1004D000E02D81E090E002C0880F991F2A95E2F795
:1004E000809520812823208381E00895EE0FFF1F4F
:1004F000E457FF4F0190F081E02D81E090E002C0D1
:10050000880F991F2A95E2F72081282B208381E00C
:100510000895DB01843010F080E00895E82FF0E0CA
:10052000EE0FFF1FE456FF4F0190F081E02D808118
:100530008C9381E00895DB01843010F080E0089511
:10054000E82FF0E0EE0FFF1FE457FF4F0190F0811E
:10055000E02D8C91808381E008958032F8F4E82FBB
:10056000E695E695E695F0E0EE0FFF1FEC56FF4F9F
:100570000190F081E02D382F377081E090E0032E5C
:1005800002C0880F991F0A94E2F780952081822388
:1005900001C0660F3A95EAF7862B808380E00895C4
:1005A000843008F46ABB80E00895DB018032F8F4FF
:1005B000869586958695482F50E0FA01EE0FFF1F2D
:1005C000EC56FF4F0190F081E02D808190E021E01A
:1005D00030E0042E02C0220F331F0A94E2F7822378
:1005E000932302C0959587954A95E2F78C9380E016
:1005F0000895DB01843010F080E00895E82FF0E0EA
:10060000EE0FFF1FEC56FF4F0190F081E02D80812F
:0A0610008C9381E00895F894FFCF69
:10061A00E301D701BF01A70193017B015F014F01EC
:10062A002F0113010B010301FB00F300EB00E300B0
:10063A00DE00D900D400CF00CA00C5003B00380054
:10064A00350032003A0037003400310039003600F4
:04065A003300300039
:00000001FF
